{
  "contractName": "Adoption",
  "abi": [
    {
      "constant": true,
      "inputs": [],
      "name": "getAdopters",
      "outputs": [
        {
          "name": "",
          "type": "address[16]"
        }
      ],
      "payable": false,
      "stateMutability": "view",
      "type": "function"
    },
    {
      "constant": true,
      "inputs": [
        {
          "name": "",
          "type": "uint256"
        }
      ],
      "name": "adopters",
      "outputs": [
        {
          "name": "",
          "type": "address"
        }
      ],
      "payable": false,
      "stateMutability": "view",
      "type": "function"
    },
    {
      "constant": false,
      "inputs": [
        {
          "name": "musicId",
          "type": "uint256"
        }
      ],
      "name": "adopt",
      "outputs": [
        {
          "name": "",
          "type": "uint256"
        }
      ],
      "payable": false,
      "stateMutability": "nonpayable",
      "type": "function"
    },
    {
      "constant": true,
      "inputs": [],
      "name": "getMusicHash",
      "outputs": [
        {
          "name": "",
          "type": "string"
        }
      ],
      "payable": false,
      "stateMutability": "pure",
      "type": "function"
    }
  ],
  "bytecode": "0x6060604052341561000f57600080fd5b6103f48061001e6000396000f300606060405260043610610062576000357c0100000000000000000000000000000000000000000000000000000000900463ffffffff1680633de4eb171461006757806343ae80d3146100b85780638588b2c51461011b578063f1a68d8814610152575b600080fd5b341561007257600080fd5b61007a6101e0565b6040518082601060200280838360005b838110156100a557808201518184015260208101905061008a565b5050505090500191505060405180910390f35b34156100c357600080fd5b6100d96004808035906020019091905050610261565b604051808273ffffffffffffffffffffffffffffffffffffffff1673ffffffffffffffffffffffffffffffffffffffff16815260200191505060405180910390f35b341561012657600080fd5b61013c6004808035906020019091905050610296565b6040518082815260200191505060405180910390f35b341561015d57600080fd5b61016561030b565b6040518080602001828103825283818151815260200191508051906020019080838360005b838110156101a557808201518184015260208101905061018a565b50505050905090810190601f1680156101d25780820380516001836020036101000a031916815260200191505b509250505060405180910390f35b6101e8610375565b6000601080602002604051908101604052809291908260108015610257576020028201915b8160009054906101000a900473ffffffffffffffffffffffffffffffffffffffff1673ffffffffffffffffffffffffffffffffffffffff168152602001906001019080831161020d575b5050505050905090565b60008160108110151561027057fe5b016000915054906101000a900473ffffffffffffffffffffffffffffffffffffffff1681565b60008082101580156102a95750600f8211155b15156102b457600080fd5b336000836010811015156102c457fe5b0160006101000a81548173ffffffffffffffffffffffffffffffffffffffff021916908373ffffffffffffffffffffffffffffffffffffffff160217905550819050919050565b6103136103b4565b606060405190810160405280602e81526020017f516d4e6d5362556d764d63516f443242327139486f7a6a52795433574b6a784181526020017f574e4d43347954587a76337a3979000000000000000000000000000000000000815250905090565b610200604051908101604052806010905b600073ffffffffffffffffffffffffffffffffffffffff168152602001906001900390816103865790505090565b6020604051908101604052806000815250905600a165627a7a72305820e17484e9700abf66877c3df8cae85ab0ced87406ab64e2dfda95bd8e57d5adaf0029",
  "source": "pragma solidity ^0.4.17;\n\ncontract Adoption {\n    address[16] public adopters;\n    string constant staticHash = \"QmNmSbUmvMcQoD2B2q9HozjRyT3WKjxAWNMC4yTXzv3z9y\";\n    \n    // Adopting a Music\n    function adopt(uint musicId) public returns (uint) {\n        require(musicId >= 0 && musicId <= 15);\n\n        adopters[musicId] = msg.sender;\n\n        return musicId;\n    }\n    \n    // Retrieving the adopters\n    function getAdopters() public view returns (address[16]) {\n        return adopters;\n    }\n\n    function getMusicHash() public pure returns (string) {\n        return staticHash;\n    }\n}",
  "sourcePath": "/Users/aamirsuhialmir/Desktop/media/contracts/Adoption.sol",
  "compiler": {
    "name": "solc",
    "version": "0.4.18+commit.9cf6e910.Emscripten.clang"
  },
  "schemaVersion": "1.0.1",
  "updatedAt": "2018-02-25T19:02:23.597Z"
}